{
	"abi": [
		{
			"type": "constructor",
			"inputs": [
				{
					"name": "fluid",
					"type": "address",
					"internalType": "contract ISuperToken"
				},
				{
					"name": "taxDistributionPool",
					"type": "address",
					"internalType": "contract ISuperfluidPool"
				},
				{
					"name": "programManager",
					"type": "address",
					"internalType": "contract IEPProgramManager"
				},
				{
					"name": "stakingRewardController",
					"type": "address",
					"internalType": "contract IStakingRewardController"
				},
				{
					"name": "fontaineBeacon",
					"type": "address",
					"internalType": "address"
				},
				{
					"name": "isUnlockAvailable",
					"type": "bool",
					"internalType": "bool"
				}
			],
			"stateMutability": "nonpayable"
		},
		{
			"type": "function",
			"name": "EP_PROGRAM_MANAGER",
			"inputs": [],
			"outputs": [
				{
					"name": "",
					"type": "address",
					"internalType": "contract IEPProgramManager"
				}
			],
			"stateMutability": "view"
		},
		{
			"type": "function",
			"name": "FLUID",
			"inputs": [],
			"outputs": [
				{
					"name": "",
					"type": "address",
					"internalType": "contract ISuperToken"
				}
			],
			"stateMutability": "view"
		},
		{
			"type": "function",
			"name": "FONTAINE_BEACON",
			"inputs": [],
			"outputs": [
				{
					"name": "",
					"type": "address",
					"internalType": "contract UpgradeableBeacon"
				}
			],
			"stateMutability": "view"
		},
		{
			"type": "function",
			"name": "STAKING_REWARD_CONTROLLER",
			"inputs": [],
			"outputs": [
				{
					"name": "",
					"type": "address",
					"internalType": "contract IStakingRewardController"
				}
			],
			"stateMutability": "view"
		},
		{
			"type": "function",
			"name": "TAX_DISTRIBUTION_POOL",
			"inputs": [],
			"outputs": [
				{
					"name": "",
					"type": "address",
					"internalType": "contract ISuperfluidPool"
				}
			],
			"stateMutability": "view"
		},
		{
			"type": "function",
			"name": "UNLOCK_AVAILABLE",
			"inputs": [],
			"outputs": [
				{
					"name": "",
					"type": "bool",
					"internalType": "bool"
				}
			],
			"stateMutability": "view"
		},
		{
			"type": "function",
			"name": "claim",
			"inputs": [
				{
					"name": "programId",
					"type": "uint256",
					"internalType": "uint256"
				},
				{
					"name": "totalProgramUnits",
					"type": "uint256",
					"internalType": "uint256"
				},
				{
					"name": "nonce",
					"type": "uint256",
					"internalType": "uint256"
				},
				{
					"name": "stackSignature",
					"type": "bytes",
					"internalType": "bytes"
				}
			],
			"outputs": [],
			"stateMutability": "nonpayable"
		},
		{
			"type": "function",
			"name": "claim",
			"inputs": [
				{
					"name": "programIds",
					"type": "uint256[]",
					"internalType": "uint256[]"
				},
				{
					"name": "totalProgramUnits",
					"type": "uint256[]",
					"internalType": "uint256[]"
				},
				{
					"name": "nonce",
					"type": "uint256",
					"internalType": "uint256"
				},
				{
					"name": "stackSignature",
					"type": "bytes",
					"internalType": "bytes"
				}
			],
			"outputs": [],
			"stateMutability": "nonpayable"
		},
		{
			"type": "function",
			"name": "connect",
			"inputs": [
				{
					"name": "programId",
					"type": "uint256",
					"internalType": "uint256"
				}
			],
			"outputs": [],
			"stateMutability": "nonpayable"
		},
		{
			"type": "function",
			"name": "disconnect",
			"inputs": [
				{
					"name": "programIds",
					"type": "uint256[]",
					"internalType": "uint256[]"
				}
			],
			"outputs": [],
			"stateMutability": "nonpayable"
		},
		{
			"type": "function",
			"name": "disconnect",
			"inputs": [
				{
					"name": "programId",
					"type": "uint256",
					"internalType": "uint256"
				}
			],
			"outputs": [],
			"stateMutability": "nonpayable"
		},
		{
			"type": "function",
			"name": "disconnectAndClaim",
			"inputs": [
				{
					"name": "programIdsToDisconnect",
					"type": "uint256[]",
					"internalType": "uint256[]"
				},
				{
					"name": "programIdsToClaim",
					"type": "uint256[]",
					"internalType": "uint256[]"
				},
				{
					"name": "totalProgramUnits",
					"type": "uint256[]",
					"internalType": "uint256[]"
				},
				{
					"name": "nonce",
					"type": "uint256",
					"internalType": "uint256"
				},
				{
					"name": "stackSignature",
					"type": "bytes",
					"internalType": "bytes"
				}
			],
			"outputs": [],
			"stateMutability": "nonpayable"
		},
		{
			"type": "function",
			"name": "fontaineCount",
			"inputs": [],
			"outputs": [
				{
					"name": "",
					"type": "uint16",
					"internalType": "uint16"
				}
			],
			"stateMutability": "view"
		},
		{
			"type": "function",
			"name": "fontaines",
			"inputs": [
				{
					"name": "unlockId",
					"type": "uint256",
					"internalType": "uint256"
				}
			],
			"outputs": [
				{
					"name": "fontaine",
					"type": "address",
					"internalType": "contract IFontaine"
				}
			],
			"stateMutability": "view"
		},
		{
			"type": "function",
			"name": "getAvailableBalance",
			"inputs": [],
			"outputs": [
				{
					"name": "aBalance",
					"type": "uint256",
					"internalType": "uint256"
				}
			],
			"stateMutability": "view"
		},
		{
			"type": "function",
			"name": "getFlowRatePerProgram",
			"inputs": [
				{
					"name": "programIds",
					"type": "uint256[]",
					"internalType": "uint256[]"
				}
			],
			"outputs": [
				{
					"name": "flowRates",
					"type": "int96[]",
					"internalType": "int96[]"
				}
			],
			"stateMutability": "view"
		},
		{
			"type": "function",
			"name": "getFlowRatePerProgram",
			"inputs": [
				{
					"name": "programId",
					"type": "uint256",
					"internalType": "uint256"
				}
			],
			"outputs": [
				{
					"name": "flowRate",
					"type": "int96",
					"internalType": "int96"
				}
			],
			"stateMutability": "view"
		},
		{
			"type": "function",
			"name": "getFontaineBeaconImplementation",
			"inputs": [],
			"outputs": [
				{
					"name": "fontaineBeaconImpl",
					"type": "address",
					"internalType": "address"
				}
			],
			"stateMutability": "view"
		},
		{
			"type": "function",
			"name": "getStakedBalance",
			"inputs": [],
			"outputs": [
				{
					"name": "sBalance",
					"type": "uint256",
					"internalType": "uint256"
				}
			],
			"stateMutability": "view"
		},
		{
			"type": "function",
			"name": "getUnitsPerProgram",
			"inputs": [
				{
					"name": "programId",
					"type": "uint256",
					"internalType": "uint256"
				}
			],
			"outputs": [
				{
					"name": "units",
					"type": "uint128",
					"internalType": "uint128"
				}
			],
			"stateMutability": "view"
		},
		{
			"type": "function",
			"name": "getUnitsPerProgram",
			"inputs": [
				{
					"name": "programIds",
					"type": "uint256[]",
					"internalType": "uint256[]"
				}
			],
			"outputs": [
				{
					"name": "units",
					"type": "uint128[]",
					"internalType": "uint128[]"
				}
			],
			"stateMutability": "view"
		},
		{
			"type": "function",
			"name": "initialize",
			"inputs": [
				{
					"name": "owner",
					"type": "address",
					"internalType": "address"
				}
			],
			"outputs": [],
			"stateMutability": "nonpayable"
		},
		{
			"type": "function",
			"name": "lock",
			"inputs": [
				{
					"name": "amount",
					"type": "uint256",
					"internalType": "uint256"
				}
			],
			"outputs": [],
			"stateMutability": "nonpayable"
		},
		{
			"type": "function",
			"name": "lockerOwner",
			"inputs": [],
			"outputs": [
				{
					"name": "",
					"type": "address",
					"internalType": "address"
				}
			],
			"stateMutability": "view"
		},
		{
			"type": "function",
			"name": "stake",
			"inputs": [],
			"outputs": [],
			"stateMutability": "nonpayable"
		},
		{
			"type": "function",
			"name": "stakingUnlocksAt",
			"inputs": [],
			"outputs": [
				{
					"name": "",
					"type": "uint80",
					"internalType": "uint80"
				}
			],
			"stateMutability": "view"
		},
		{
			"type": "function",
			"name": "unlock",
			"inputs": [
				{
					"name": "unlockPeriod",
					"type": "uint128",
					"internalType": "uint128"
				},
				{
					"name": "recipient",
					"type": "address",
					"internalType": "address"
				}
			],
			"outputs": [],
			"stateMutability": "nonpayable"
		},
		{
			"type": "function",
			"name": "unstake",
			"inputs": [],
			"outputs": [],
			"stateMutability": "nonpayable"
		},
		{
			"type": "event",
			"name": "FluidLocked",
			"inputs": [
				{
					"name": "amount",
					"type": "uint256",
					"indexed": true,
					"internalType": "uint256"
				}
			],
			"anonymous": false
		},
		{
			"type": "event",
			"name": "FluidStaked",
			"inputs": [
				{
					"name": "newTotalStakedBalance",
					"type": "uint256",
					"indexed": true,
					"internalType": "uint256"
				},
				{
					"name": "addedAmount",
					"type": "uint256",
					"indexed": true,
					"internalType": "uint256"
				}
			],
			"anonymous": false
		},
		{
			"type": "event",
			"name": "FluidStreamClaimed",
			"inputs": [
				{
					"name": "programId",
					"type": "uint256",
					"indexed": true,
					"internalType": "uint256"
				},
				{
					"name": "totalProgramUnits",
					"type": "uint256",
					"indexed": true,
					"internalType": "uint256"
				}
			],
			"anonymous": false
		},
		{
			"type": "event",
			"name": "FluidStreamsClaimed",
			"inputs": [
				{
					"name": "programId",
					"type": "uint256[]",
					"indexed": true,
					"internalType": "uint256[]"
				},
				{
					"name": "totalProgramUnits",
					"type": "uint256[]",
					"indexed": true,
					"internalType": "uint256[]"
				}
			],
			"anonymous": false
		},
		{
			"type": "event",
			"name": "FluidUnlocked",
			"inputs": [
				{
					"name": "unlockPeriod",
					"type": "uint128",
					"indexed": true,
					"internalType": "uint128"
				},
				{
					"name": "availableBalance",
					"type": "uint256",
					"indexed": true,
					"internalType": "uint256"
				},
				{
					"name": "recipient",
					"type": "address",
					"indexed": false,
					"internalType": "address"
				},
				{
					"name": "fontaine",
					"type": "address",
					"indexed": true,
					"internalType": "address"
				}
			],
			"anonymous": false
		},
		{
			"type": "event",
			"name": "FluidUnstaked",
			"inputs": [],
			"anonymous": false
		},
		{
			"type": "event",
			"name": "Initialized",
			"inputs": [
				{
					"name": "version",
					"type": "uint64",
					"indexed": false,
					"internalType": "uint64"
				}
			],
			"anonymous": false
		},
		{
			"type": "error",
			"name": "FORBIDDEN",
			"inputs": []
		},
		{
			"type": "error",
			"name": "INVALID_UNLOCK_PERIOD",
			"inputs": []
		},
		{
			"type": "error",
			"name": "InvalidInitialization",
			"inputs": []
		},
		{
			"type": "error",
			"name": "NOT_LOCKER_OWNER",
			"inputs": []
		},
		{
			"type": "error",
			"name": "NO_FLUID_TO_STAKE",
			"inputs": []
		},
		{
			"type": "error",
			"name": "NO_FLUID_TO_UNLOCK",
			"inputs": []
		},
		{
			"type": "error",
			"name": "NO_FLUID_TO_UNSTAKE",
			"inputs": []
		},
		{
			"type": "error",
			"name": "NotInitializing",
			"inputs": []
		},
		{
			"type": "error",
			"name": "Reentrancy",
			"inputs": []
		},
		{
			"type": "error",
			"name": "STAKING_COOLDOWN_NOT_ELAPSED",
			"inputs": []
		},
		{
			"type": "error",
			"name": "SafeCastOverflowedIntDowncast",
			"inputs": [
				{
					"name": "bits",
					"type": "uint8",
					"internalType": "uint8"
				},
				{
					"name": "value",
					"type": "int256",
					"internalType": "int256"
				}
			]
		},
		{
			"type": "error",
			"name": "TAX_DISTRIBUTION_POOL_HAS_NO_UNITS",
			"inputs": []
		},
		{
			"type": "error",
			"name": "TTE_NOT_ACTIVATED",
			"inputs": []
		}
	],
	"bytecode": {
		"object": "0x61014060405234801562000011575f80fd5b5060405162003af838038062003af8833981016040819052620000349162000137565b6200003e6200006e565b1515610120526001600160a01b0394851660805292841660a05290831660c052821660e0521661010052620001ca565b7ff0c57e16840df040f15088dc2f81fe391c3923bec73e23a9662efc9c229c6a00805468010000000000000000900460ff1615620000bf5760405163f92ee8a960e01b815260040160405180910390fd5b80546001600160401b03908116146200011f5780546001600160401b0319166001600160401b0390811782556040519081527fc7f505b2f371ae2175ee4913f4499e1f2633a7b5936321eed1cdaeb6115181d29060200160405180910390a15b50565b6001600160a01b03811681146200011f575f80fd5b5f805f805f8060c087890312156200014d575f80fd5b86516200015a8162000122565b60208801519096506200016d8162000122565b6040880151909550620001808162000122565b6060880151909450620001938162000122565b6080880151909350620001a68162000122565b60a08801519092508015158114620001bc575f80fd5b809150509295509295509295565b60805160a05160c05160e0516101005161012051613806620002f25f395f818161044401528181610804015281816109fb0152610cf601525f81816102900152818161159a01526119a701525f81816103f4015281816108b40152610b8701525f81816104a70152818161062b01528181610fe4015281816111e80152818161166c01528181611c3701528181611d2a015261217f01525f818161041c0152818161094701528181610a9601528181610af101528181610db7015261184001525f818161051b0152818161092301528181610a7401528181610acf01528181611068015281816110a301528181611149015281816114e8015281816116f00152818161181d0152818161187101528181611a3a01528181612203015261223e01526138065ff3fe608060405234801562000010575f80fd5b5060043610620001e0575f3560e01c8063809dab6a1162000107578063c4d66de8116200009f578063dd4670641162000077578063dd46706414620004f4578063e9a3c57e146200050b578063f6e2aa3b1462000515578063fd459510146200053d575f80fd5b8063c4d66de8146200048a578063cad1f47f14620004a1578063d991aaed14620004c9575f80fd5b8063983835bb11620000df578063983835bb14620003ee57806399e570b814620004165780639f52e778146200043e578063a80b46941462000477575f80fd5b8063809dab6a146200038e57806385ebd71b1462000398578063904ef61414620003c8575f80fd5b806347588f1f116200017b578063573fb1ba1162000153578063573fb1ba146200031a5780635bbd554c14620003315780636548b7ae146200036457806376965867146200037b575f80fd5b806347588f1f14620002d557806350bf2c3e14620002ec578063534728271462000303575f80fd5b80632def662011620001bb5780632def6620146200025757806332d8b390146200026157806333c76875146200028a5780633a4b66f114620002cb575f80fd5b8063022d52c714620001e45780631195bfcb14620002135780632a3dad6a146200023e575b5f80fd5b620001fb620001f536600462002900565b62000554565b6040516200020a91906200293d565b60405180910390f35b6200022a6200022436600462002985565b62000609565b604051600b9190910b81526020016200020a565b620002556200024f36600462002900565b6200070a565b005b62000255620007ac565b5f546200027690600160f01b900461ffff1681565b60405161ffff90911681526020016200020a565b620002b27f000000000000000000000000000000000000000000000000000000000000000081565b6040516001600160a01b0390911681526020016200020a565b62000255620009a3565b62000255620002e636600462002985565b62000c2e565b62000255620002fd366004620029ca565b62000c9e565b620002556200031436600462002a87565b62000ed0565b620002556200032b36600462002985565b62000f76565b5f546200034b90600160a01b90046001600160501b031681565b6040516001600160501b0390911681526020016200020a565b620002556200037536600462002b42565b620010db565b6001545b6040519081526020016200020a565b6200037f62001126565b620003af620003a936600462002985565b620011c6565b6040516001600160801b0390911681526020016200020a565b620003df620003d936600462002900565b620012c0565b6040516200020a919062002b9b565b620002b27f000000000000000000000000000000000000000000000000000000000000000081565b620002b27f000000000000000000000000000000000000000000000000000000000000000081565b620004667f000000000000000000000000000000000000000000000000000000000000000081565b60405190151581526020016200020a565b5f54620002b2906001600160a01b031681565b620002556200049b36600462002bdd565b62001374565b620002b27f000000000000000000000000000000000000000000000000000000000000000081565b620002b2620004da36600462002985565b60026020525f90815260409020546001600160a01b031681565b620002556200050536600462002985565b62001497565b620002b262001597565b620002b27f000000000000000000000000000000000000000000000000000000000000000081565b620002556200054e36600462002bfb565b6200161b565b606081516001600160401b0381111562000572576200057262002834565b6040519080825280602002602001820160405280156200059c578160200160208202803683370190505b5090505f5b82518110156200060357620005d2838281518110620005c457620005c462002c84565b602002602001015162000609565b828281518110620005e757620005e762002c84565b600b9290920b60209283029190910190910152600101620005a1565b50919050565b604051637e5448fd60e01b8152600481018290525f9081906001600160a01b037f00000000000000000000000000000000000000000000000000000000000000001690637e5448fd90602401602060405180830381865afa15801562000671573d5f803e3d5ffd5b505050506040513d601f19601f8201168201806040525081019062000697919062002c98565b6040516314e7a30760e21b81523060048201529091506001600160a01b0382169063539e8c1c90602401602060405180830381865afa158015620006dd573d5f803e3d5ffd5b505050506040513d601f19601f8201168201806040525081019062000703919062002cb6565b9392505050565b3068929eee149b4bd212685403620007295763ab143c065f526004601cfd5b3068929eee149b4bd21268555f546001600160a01b03163314620007605760405163318c67b160e11b815260040160405180910390fd5b5f5b81518110156200079c576200079382828151811062000785576200078562002c84565b602002602001015162001654565b60010162000762565b503868929eee149b4bd212685550565b3068929eee149b4bd212685403620007cb5763ab143c065f526004601cfd5b3068929eee149b4bd21268555f546001600160a01b03163314620008025760405163318c67b160e11b815260040160405180910390fd5b7f00000000000000000000000000000000000000000000000000000000000000006200084157604051630acacf9960e11b815260040160405180910390fd5b5f54600160a01b90046001600160501b031642101562000874576040516304ac4b8560e01b815260040160405180910390fd5b6001545f036200089757604051638fa0ce5560e01b815260040160405180910390fd5b5f6001819055604051632c4fe36360e21b815260048101919091527f00000000000000000000000000000000000000000000000000000000000000006001600160a01b03169063b13f8d8c906024015f604051808303815f87803b158015620008fe575f80fd5b505af115801562000911573d5f803e3d5ffd5b506200096c9250506001600160a01b037f00000000000000000000000000000000000000000000000000000000000000001690507f00000000000000000000000000000000000000000000000000000000000000006200171c565b506040517f48971d4451bf9827d0998c557594fce4fabb15c90c4cfa68ce1754057e5bd705905f90a13868929eee149b4bd2126855565b3068929eee149b4bd212685403620009c25763ab143c065f526004601cfd5b3068929eee149b4bd21268555f546001600160a01b03163314620009f95760405163318c67b160e11b815260040160405180910390fd5b7f000000000000000000000000000000000000000000000000000000000000000062000a3857604051630acacf9960e11b815260040160405180910390fd5b5f62000a4362001126565b9050805f0362000a6657604051631c7b67bb60e21b815260040160405180910390fd5b62000abc6001600160a01b037f0000000000000000000000000000000000000000000000000000000000000000167f00000000000000000000000000000000000000000000000000000000000000003062001743565b62000b185762000b166001600160a01b037f0000000000000000000000000000000000000000000000000000000000000000167f0000000000000000000000000000000000000000000000000000000000000000620017d1565b505b8060015f82825462000b2b919062002cec565b9091555062000b4090506203f4804262002d02565b5f80546001600160501b0392909216600160a01b0269ffffffffffffffffffff60a01b19909216919091179055600154604051632c4fe36360e21b81526001600160a01b037f0000000000000000000000000000000000000000000000000000000000000000169163b13f8d8c9162000bc0919060040190815260200190565b5f604051808303815f87803b15801562000bd8575f80fd5b505af115801562000beb573d5f803e3d5ffd5b50505050806001547f914c8b84807a2105a27a80d5095b71616a232f66c22c46cfa8e82ceb7b29495e60405160405180910390a3503868929eee149b4bd2126855565b3068929eee149b4bd21268540362000c4d5763ab143c065f526004601cfd5b3068929eee149b4bd21268555f546001600160a01b0316331462000c845760405163318c67b160e11b815260040160405180910390fd5b62000c8f8162001654565b3868929eee149b4bd212685550565b3068929eee149b4bd21268540362000cbd5763ab143c065f526004601cfd5b3068929eee149b4bd21268555f546001600160a01b0316331462000cf45760405163318c67b160e11b815260040160405180910390fd5b7f000000000000000000000000000000000000000000000000000000000000000062000d3357604051630acacf9960e11b815260040160405180910390fd5b6001600160801b0382161580159062000d6e575062093a806001600160801b038316108062000d6e57506301e133806001600160801b038316115b1562000d8d5760405163f44e926560e01b815260040160405180910390fd5b6001600160a01b03811662000db55760405163036be76f60e61b815260040160405180910390fd5b7f00000000000000000000000000000000000000000000000000000000000000006001600160a01b031663a754a7026040518163ffffffff1660e01b8152600401602060405180830381865afa15801562000e12573d5f803e3d5ffd5b505050506040513d601f19601f8201168201806040525081019062000e38919062002d2c565b6001600160801b03165f0362000e6157604051631f54695b60e11b815260040160405180910390fd5b5f62000e6c62001126565b9050805f0362000e8f57604051633c27216d60e01b815260040160405180910390fd5b826001600160801b03165f0362000eb25762000eac8183620017ef565b62000ebf565b62000ebf8184846200195a565b503868929eee149b4bd21268555050565b3068929eee149b4bd21268540362000eef5763ab143c065f526004601cfd5b3068929eee149b4bd21268555f546001600160a01b0316331462000f265760405163318c67b160e11b815260040160405180910390fd5b5f5b855181101562000f545762000f4b86828151811062000785576200078562002c84565b60010162000f28565b5062000f638484848462001be1565b3868929eee149b4bd21268555050505050565b3068929eee149b4bd21268540362000f955763ab143c065f526004601cfd5b3068929eee149b4bd21268555f546001600160a01b0316331462000fcc5760405163318c67b160e11b815260040160405180910390fd5b604051637e5448fd60e01b8152600481018290525f907f00000000000000000000000000000000000000000000000000000000000000006001600160a01b031690637e5448fd90602401602060405180830381865afa15801562001032573d5f803e3d5ffd5b505050506040513d601f19601f8201168201806040525081019062001058919062002c98565b9050620010906001600160a01b037f000000000000000000000000000000000000000000000000000000000000000016823062001743565b6200079c57620010ca6001600160a01b037f00000000000000000000000000000000000000000000000000000000000000001682620017d1565b50503868929eee149b4bd212685550565b3068929eee149b4bd212685403620010fa5763ab143c065f526004601cfd5b3068929eee149b4bd2126855620011148484848462001d06565b3868929eee149b4bd212685550505050565b6001546040516370a0823160e01b81523060048201525f91906001600160a01b037f000000000000000000000000000000000000000000000000000000000000000016906370a0823190602401602060405180830381865afa1580156200118f573d5f803e3d5ffd5b505050506040513d601f19601f82011682018060405250810190620011b5919062002d4a565b620011c1919062002d62565b905090565b604051637e5448fd60e01b8152600481018290525f9081906001600160a01b037f00000000000000000000000000000000000000000000000000000000000000001690637e5448fd90602401602060405180830381865afa1580156200122e573d5f803e3d5ffd5b505050506040513d601f19601f8201168201806040525081019062001254919062002c98565b604051630fefbc0960e01b81523060048201529091506001600160a01b03821690630fefbc0990602401602060405180830381865afa1580156200129a573d5f803e3d5ffd5b505050506040513d601f19601f8201168201806040525081019062000703919062002d2c565b606081516001600160401b03811115620012de57620012de62002834565b60405190808252806020026020018201604052801562001308578160200160208202803683370190505b5090505f5b825181101562000603576200133e83828151811062001330576200133062002c84565b6020026020010151620011c6565b82828151811062001353576200135362002c84565b6001600160801b03909216602092830291909101909101526001016200130d565b7ff0c57e16840df040f15088dc2f81fe391c3923bec73e23a9662efc9c229c6a008054600160401b810460ff1615906001600160401b03165f81158015620013b95750825b90505f826001600160401b03166001148015620013d55750303b155b905081158015620013e4575080155b15620014035760405163f92ee8a960e01b815260040160405180910390fd5b845467ffffffffffffffff1916600117855583156200142e57845460ff60401b1916600160401b1785555b5f80546001600160a01b0319166001600160a01b03881617905583156200148f57845460ff60401b19168555604051600181527fc7f505b2f371ae2175ee4913f4499e1f2633a7b5936321eed1cdaeb6115181d29060200160405180910390a15b505050505050565b3068929eee149b4bd212685403620014b65763ab143c065f526004601cfd5b3068929eee149b4bd212688190556040516323b872dd60e01b81523360048201526024810191909152604481018290527f00000000000000000000000000000000000000000000000000000000000000006001600160a01b0316906323b872dd906064016020604051808303815f875af115801562001537573d5f803e3d5ffd5b505050506040513d601f19601f820116820180604052508101906200155d919062002d78565b5060405181907fd655b62978f349872b9e5653160b5aba6715f348c411a5e4d6e96e65f0a881d1905f90a23868929eee149b4bd212685550565b5f7f00000000000000000000000000000000000000000000000000000000000000006001600160a01b0316635c60da1b6040518163ffffffff1660e01b8152600401602060405180830381865afa158015620015f5573d5f803e3d5ffd5b505050506040513d601f19601f82011682018060405250810190620011c1919062002c98565b3068929eee149b4bd2126854036200163a5763ab143c065f526004601cfd5b3068929eee149b4bd2126855620011148484848462001be1565b604051637e5448fd60e01b8152600481018290525f907f00000000000000000000000000000000000000000000000000000000000000006001600160a01b031690637e5448fd90602401602060405180830381865afa158015620016ba573d5f803e3d5ffd5b505050506040513d601f19601f82011682018060405250810190620016e0919062002c98565b9050620017176001600160a01b037f000000000000000000000000000000000000000000000000000000000000000016826200171c565b505050565b604080515f808252602082019092526200173a908490849062001dce565b90505b92915050565b5f80620017508562001ef9565b6040516331e0bae760e21b81526001600160a01b0387811660048301528681166024830152919350908316915063c782eb9c90604401602060405180830381865afa158015620017a2573d5f803e3d5ffd5b505050506040513d601f19601f82011682018060405250810190620017c8919062002d78565b95945050505050565b604080515f808252602082019092526200173a908490849062002084565b5f61271062001801611f408562002d99565b6200180d919062002dc7565b9050620018666001600160a01b037f000000000000000000000000000000000000000000000000000000000000000016307f000000000000000000000000000000000000000000000000000000000000000084620020d1565b506001600160a01b037f00000000000000000000000000000000000000000000000000000000000000001663a9059cbb83620018a3848762002d62565b6040516001600160e01b031960e085901b1681526001600160a01b03909216600483015260248201526044016020604051808303815f875af1158015620018ec573d5f803e3d5ffd5b505050506040513d601f19601f8201168201806040525081019062001912919062002d78565b506040516001600160a01b03831681525f90849082907f18909f19c2b81fa3fc05924aca08aaa70ce92c1528795d9fa292c7ec0bc9bc719060200160405180910390a4505050565b5f80620019688585620020f3565b5f805460408051306020820152600160f01b90920461ffff169082015292945090925090606001604051602081830303815290604052805190602001207f0000000000000000000000000000000000000000000000000000000000000000604051620019d49062002826565b6001600160a01b0390911681526040602082018190525f908201526060018190604051809103905ff590508015801562001a10573d5f803e3d5ffd5b5060405163a9059cbb60e01b81526001600160a01b038083166004830152602482018990529192507f00000000000000000000000000000000000000000000000000000000000000009091169063a9059cbb906044016020604051808303815f875af115801562001a83573d5f803e3d5ffd5b505050506040513d601f19601f8201168201806040525081019062001aa9919062002d78565b505f8054600160f01b9081900461ffff908116835260026020526040832080546001600160a01b0319166001600160a01b0386161790558254919091041690601e62001af58362002ddd565b825461ffff9182166101009390930a928302919092021990911617905550604051634ad4d3cb60e01b81526001600160a01b038581166004830152600b85810b602484015284900b60448301526001600160801b0387166064830152821690634ad4d3cb906084015f604051808303815f87803b15801562001b75575f80fd5b505af115801562001b88573d5f803e3d5ffd5b50506040516001600160a01b038781168252841692508891506001600160801b038816907f18909f19c2b81fa3fc05924aca08aaa70ce92c1528795d9fa292c7ec0bc9bc719060200160405180910390a4505050505050565b5f5b845181101562001c1d5762001c1485828151811062001c065762001c0662002c84565b602002602001015162002167565b60010162001be3565b505f54604051637cf97e5f60e11b81526001600160a01b037f000000000000000000000000000000000000000000000000000000000000000081169263f9f2fcbe9262001c7a929190911690889088908890889060040162002e8d565b5f604051808303815f87803b15801562001c92575f80fd5b505af115801562001ca5573d5f803e3d5ffd5b505050508260405162001cb9919062002ee2565b60405180910390208460405162001cd1919062002ee2565b604051908190038120907fbcbdb0b59672d67f8ae6a4e6bc24e2b435fbca40105404e61f7109bb43131620905f90a350505050565b62001d118462002167565b5f5460405163619a70dd60e11b81526001600160a01b037f000000000000000000000000000000000000000000000000000000000000000081169263c334e1ba9262001d6d929190911690889088908890889060040162002f19565b5f604051808303815f87803b15801562001d85575f80fd5b505af115801562001d98573d5f803e3d5ffd5b50506040518592508691507fd0d682ecbe87758492e068727304e0d6a2b19832b0ef66a9e0b9e30c7eddfe64905f90a350505050565b5f805f62001ddc8662002269565b91509150816001600160a01b03166339255d5b82836001600160a01b03166330925b79895f6001600160401b0381111562001e1b5762001e1b62002834565b6040519080825280601f01601f19166020018201604052801562001e46576020820181803683370190505b5060405160240162001e5a92919062002f4d565b60408051808303601f1901815291815260208201805160e094851b6001600160e01b03909116179052519185901b6001600160e01b031916825262001ea793925090899060040162002f72565b5f604051808303815f875af115801562001ec3573d5f803e3d5ffd5b505050506040513d5f823e601f3d908101601f1916820160405262001eec919081019062002fb5565b5060019695505050505050565b7f65599bf746e17a00ea62e3610586992d88101b78eec3cf380706621fb97ea837547fc36f6c05164a669ecb6da53e218d77ae44d51cfc99f91e5a125a18de0949bee4546001600160a01b0381166200204d576001600160a01b03821662001fc157826001600160a01b03166320bc44256040518163ffffffff1660e01b8152600401602060405180830381865afa15801562001f98573d5f803e3d5ffd5b505050506040513d601f19601f8201168201806040525081019062001fbe919062002c98565b91505b604051635b69006f60e11b81527fdfd8ece9bfbcb8c5c540edb935641f63d67686490a1ab97f000288759f30a94660048201526001600160a01b0383169063b6d200de90602401602060405180830381865afa15801562002024573d5f803e3d5ffd5b505050506040513d601f19601f820116820180604052508101906200204a919062002c98565b90505b6001600160a01b03821662002066576200206662003026565b6001600160a01b0381166200207f576200207f62003026565b915091565b5f805f620020928662002269565b91509150816001600160a01b03166339255d5b82836001600160a01b031663f0b7b915895f6001600160401b0381111562001e1b5762001e1b62002834565b604080515f80825260208201909252620017c89086908690869086906200241b565b5f8080620021156200210f6001600160801b0386168762002dc7565b620025ce565b905062002124612710620025ce565b62002143620021338662002607565b83600b0b6200210f91906200303a565b6200214f91906200306f565b92506200215d8382620030b6565b9150509250929050565b604051637e5448fd60e01b8152600481018290525f907f00000000000000000000000000000000000000000000000000000000000000006001600160a01b031690637e5448fd90602401602060405180830381865afa158015620021cd573d5f803e3d5ffd5b505050506040513d601f19601f82011682018060405250810190620021f3919062002c98565b90506200222b6001600160a01b037f000000000000000000000000000000000000000000000000000000000000000016823062001743565b6200226557620017176001600160a01b037f00000000000000000000000000000000000000000000000000000000000000001682620017d1565b5050565b7f65599bf746e17a00ea62e3610586992d88101b78eec3cf380706621fb97ea837547fc36f6c05164a669ecb6da53e218d77ae44d51cfc99f91e5a125a18de0949bee4546001600160a01b0381166200204d576001600160a01b0382166200233157826001600160a01b03166320bc44256040518163ffffffff1660e01b8152600401602060405180830381865afa15801562002308573d5f803e3d5ffd5b505050506040513d601f19601f820116820180604052508101906200232e919062002c98565b91505b604051635b69006f60e11b81527fdfd8ece9bfbcb8c5c540edb935641f63d67686490a1ab97f000288759f30a94660048201526001600160a01b0383169063b6d200de90602401602060405180830381865afa15801562002394573d5f803e3d5ffd5b505050506040513d601f19601f82011682018060405250810190620023ba919062002c98565b9050817f65599bf746e17a00ea62e3610586992d88101b78eec3cf380706621fb97ea83755807fc36f6c05164a669ecb6da53e218d77ae44d51cfc99f91e5a125a18de0949bee4556001600160a01b03821662002066576200206662003026565b5f805f620024298862002269565b91509150816001600160a01b03166339255d5b82836001600160a01b0316636d1007a68c8c8c8c5f6001600160401b038111156200246b576200246b62002834565b6040519080825280601f01601f19166020018201604052801562002496576020820181803683370190505b50604051602401620024ad959493929190620030f0565b60408051808303601f1901815291815260208201805160e094851b6001600160e01b03909116179052519185901b6001600160e01b0319168252620024fa93925090899060040162002f72565b5f604051808303815f875af115801562002516573d5f803e3d5ffd5b505050506040513d5f823e601f3d908101601f191682016040526200253f919081019062002fb5565b5060405163eccfc6a560e01b81526001600160a01b038981166004830152888116602483015287811660448301526064820187905282169063eccfc6a590608401602060405180830381865afa1580156200259c573d5f803e3d5ffd5b505050506040513d601f19601f82011682018060405250810190620025c2919062002d4a565b98975050505050505050565b80600b81900b8114620026025760405163327269a760e01b8152606060048201526024810183905260440160405180910390fd5b919050565b5f6200262a62002624670de0b6b3a76400006301e1338062002d99565b62002673565b6200264b62002624670de0b6b3a76400006001600160801b03861662002d99565b6200265990611f4062002d99565b62002665919062002dc7565b6200173d906107d062002cec565b5f815f036200268357505f919050565b5f6001620026918462002774565b901c6001901b90506001818481620026ad57620026ad62002db3565b048201901c90506001818481620026c857620026c862002db3565b048201901c90506001818481620026e357620026e362002db3565b048201901c90506001818481620026fe57620026fe62002db3565b048201901c9050600181848162002719576200271962002db3565b048201901c9050600181848162002734576200273462002db3565b048201901c905060018184816200274f576200274f62002db3565b048201901c905062000703818285816200276d576200276d62002db3565b046200280f565b5f80608083901c156200278957608092831c92015b604083901c156200279c57604092831c92015b602083901c15620027af57602092831c92015b601083901c15620027c257601092831c92015b600883901c15620027d557600892831c92015b600483901c15620027e857600492831c92015b600283901c15620027fb57600292831c92015b600183901c156200173d5760010192915050565b5f8183106200281f57816200173a565b5090919050565b6106a4806200312d83390190565b634e487b7160e01b5f52604160045260245ffd5b604051601f8201601f191681016001600160401b038111828210171562002873576200287362002834565b604052919050565b5f82601f8301126200288b575f80fd5b813560206001600160401b03821115620028a957620028a962002834565b8160051b620028ba82820162002848565b9283528481018201928281019087851115620028d4575f80fd5b83870192505b84831015620028f557823582529183019190830190620028da565b979650505050505050565b5f6020828403121562002911575f80fd5b81356001600160401b0381111562002927575f80fd5b62002935848285016200287b565b949350505050565b602080825282518282018190525f9190848201906040850190845b8181101562002979578351600b0b8352928401929184019160010162002958565b50909695505050505050565b5f6020828403121562002996575f80fd5b5035919050565b6001600160801b0381168114620029b2575f80fd5b50565b6001600160a01b0381168114620029b2575f80fd5b5f8060408385031215620029dc575f80fd5b8235620029e9816200299d565b91506020830135620029fb81620029b5565b809150509250929050565b5f6001600160401b0382111562002a215762002a2162002834565b50601f01601f191660200190565b5f82601f83011262002a3f575f80fd5b813562002a5662002a508262002a06565b62002848565b81815284602083860101111562002a6b575f80fd5b816020850160208301375f918101602001919091529392505050565b5f805f805f60a0868803121562002a9c575f80fd5b85356001600160401b038082111562002ab3575f80fd5b62002ac189838a016200287b565b9650602088013591508082111562002ad7575f80fd5b62002ae589838a016200287b565b9550604088013591508082111562002afb575f80fd5b62002b0989838a016200287b565b945060608801359350608088013591508082111562002b26575f80fd5b5062002b358882890162002a2f565b9150509295509295909350565b5f805f806080858703121562002b56575f80fd5b84359350602085013592506040850135915060608501356001600160401b0381111562002b81575f80fd5b62002b8f8782880162002a2f565b91505092959194509250565b602080825282518282018190525f9190848201906040850190845b81811015620029795783516001600160801b03168352928401929184019160010162002bb6565b5f6020828403121562002bee575f80fd5b81356200070381620029b5565b5f805f806080858703121562002c0f575f80fd5b84356001600160401b038082111562002c26575f80fd5b62002c34888389016200287b565b9550602087013591508082111562002c4a575f80fd5b62002c58888389016200287b565b945060408701359350606087013591508082111562002c75575f80fd5b5062002b8f8782880162002a2f565b634e487b7160e01b5f52603260045260245ffd5b5f6020828403121562002ca9575f80fd5b81516200070381620029b5565b5f6020828403121562002cc7575f80fd5b815180600b0b811462000703575f80fd5b634e487b7160e01b5f52601160045260245ffd5b808201808211156200173d576200173d62002cd8565b6001600160501b0381811683821601908082111562002d255762002d2562002cd8565b5092915050565b5f6020828403121562002d3d575f80fd5b815162000703816200299d565b5f6020828403121562002d5b575f80fd5b5051919050565b818103818111156200173d576200173d62002cd8565b5f6020828403121562002d89575f80fd5b8151801515811462000703575f80fd5b80820281158282048414176200173d576200173d62002cd8565b634e487b7160e01b5f52601260045260245ffd5b5f8262002dd85762002dd862002db3565b500490565b5f61ffff80831681810362002df65762002df662002cd8565b6001019392505050565b5f815180845260208085019450602084015f5b8381101562002e315781518752958201959082019060010162002e13565b509495945050505050565b5f5b8381101562002e5857818101518382015260200162002e3e565b50505f910152565b5f815180845262002e7981602086016020860162002e3c565b601f01601f19169290920160200192915050565b6001600160a01b038616815260a0602082018190525f9062002eb29083018762002e00565b828103604084015262002ec6818762002e00565b90508460608401528281036080840152620025c2818562002e60565b81515f9082906020808601845b8381101562002f0d5781518552938201939082019060010162002eef565b50929695505050505050565b60018060a01b038616815284602082015283604082015282606082015260a060808201525f620028f560a083018462002e60565b6001600160a01b03831681526040602082018190525f90620029359083018462002e60565b6001600160a01b03841681526060602082018190525f9062002f979083018562002e60565b828103604084015262002fab818562002e60565b9695505050505050565b5f6020828403121562002fc6575f80fd5b81516001600160401b0381111562002fdc575f80fd5b8201601f8101841362002fed575f80fd5b805162002ffe62002a508262002a06565b81815285602083850101111562003013575f80fd5b620017c882602083016020860162002e3c565b634e487b7160e01b5f52600160045260245ffd5b8082025f8212600160ff1b8414161562003058576200305862002cd8565b81810583148215176200173d576200173d62002cd8565b5f81600b0b83600b0b8062003088576200308862002db3565b6b7fffffffffffffffffffffff1982145f1982141615620030ad57620030ad62002cd8565b90059392505050565b600b82810b9082900b036b7fffffffffffffffffffffff1981126b7fffffffffffffffffffffff821317156200173d576200173d62002cd8565b6001600160a01b0386811682528581166020830152841660408201526060810183905260a0608082018190525f90620028f59083018462002e6056fe60806040526040516106a43803806106a48339810160408190526100229161040f565b61002d82825f610034565b5050610530565b61003d836100f1565b6040516001600160a01b038416907f1cf3b03a6cf19fa2baba4df148e9dcabedea7f8a5c07840e207e5c089be95d3e905f90a25f8251118061007c5750805b156100ec576100ea836001600160a01b0316635c60da1b6040518163ffffffff1660e01b8152600401602060405180830381865afa1580156100c0573d5f803e3d5ffd5b505050506040513d601f19601f820116820180604052508101906100e491906104ca565b83610273565b505b505050565b6001600160a01b0381163b61015b5760405162461bcd60e51b815260206004820152602560248201527f455243313936373a206e657720626561636f6e206973206e6f74206120636f6e6044820152641d1c9858dd60da1b60648201526084015b60405180910390fd5b6101cd816001600160a01b0316635c60da1b6040518163ffffffff1660e01b8152600401602060405180830381865afa15801561019a573d5f803e3d5ffd5b505050506040513d601f19601f820116820180604052508101906101be91906104ca565b6001600160a01b03163b151590565b6102325760405162461bcd60e51b815260206004820152603060248201527f455243313936373a20626561636f6e20696d706c656d656e746174696f6e206960448201526f1cc81b9bdd08184818dbdb9d1c9858dd60821b6064820152608401610152565b7fa3f0ad74e5423aebfd80d3ef4346578335a9a72aeaee59ff6cb3582b35133d5080546001600160a01b0319166001600160a01b0392909216919091179055565b6060610298838360405180606001604052806027815260200161067d6027913961029f565b9392505050565b60605f80856001600160a01b0316856040516102bb91906104e3565b5f60405180830381855af49150503d805f81146102f3576040519150601f19603f3d011682016040523d82523d5f602084013e6102f8565b606091505b50909250905061030a86838387610314565b9695505050505050565b606083156103825782515f0361037b576001600160a01b0385163b61037b5760405162461bcd60e51b815260206004820152601d60248201527f416464726573733a2063616c6c20746f206e6f6e2d636f6e74726163740000006044820152606401610152565b508161038c565b61038c8383610394565b949350505050565b8151156103a45781518083602001fd5b8060405162461bcd60e51b815260040161015291906104fe565b80516001600160a01b03811681146103d4575f80fd5b919050565b634e487b7160e01b5f52604160045260245ffd5b5f5b838110156104075781810151838201526020016103ef565b50505f910152565b5f8060408385031215610420575f80fd5b610429836103be565b60208401519092506001600160401b0380821115610445575f80fd5b818501915085601f830112610458575f80fd5b81518181111561046a5761046a6103d9565b604051601f8201601f19908116603f01168101908382118183101715610492576104926103d9565b816040528281528860208487010111156104aa575f80fd5b6104bb8360208301602088016103ed565b80955050505050509250929050565b5f602082840312156104da575f80fd5b610298826103be565b5f82516104f48184602087016103ed565b9190910192915050565b602081525f825180602084015261051c8160408501602087016103ed565b601f01601f19169190910160400192915050565b6101408061053d5f395ff3fe60806040523661001357610011610017565b005b6100115b610027610022610029565b6100bf565b565b5f61005b7fa3f0ad74e5423aebfd80d3ef4346578335a9a72aeaee59ff6cb3582b35133d50546001600160a01b031690565b6001600160a01b0316635c60da1b6040518163ffffffff1660e01b8152600401602060405180830381865afa158015610096573d5f803e3d5ffd5b505050506040513d601f19601f820116820180604052508101906100ba91906100dd565b905090565b365f80375f80365f845af43d5f803e8080156100d9573d5ff35b3d5ffd5b5f602082840312156100ed575f80fd5b81516001600160a01b0381168114610103575f80fd5b939250505056fea264697066735822122039c0a4ce16203822820447c6e9f8b301e676ceb73a33a07043a33b210c14fa1164736f6c63430008170033416464726573733a206c6f772d6c6576656c2064656c65676174652063616c6c206661696c6564a26469706673582212205b72d0165fe5b56d19e4524a5b3465786b4078b59556b6c991d448d683b3a66864736f6c63430008170033",
		"linkReferences": {}
	},
	"methodIdentifiers": {
		"EP_PROGRAM_MANAGER()": "cad1f47f",
		"FLUID()": "f6e2aa3b",
		"FONTAINE_BEACON()": "33c76875",
		"STAKING_REWARD_CONTROLLER()": "983835bb",
		"TAX_DISTRIBUTION_POOL()": "99e570b8",
		"UNLOCK_AVAILABLE()": "9f52e778",
		"claim(uint256,uint256,uint256,bytes)": "6548b7ae",
		"claim(uint256[],uint256[],uint256,bytes)": "fd459510",
		"connect(uint256)": "573fb1ba",
		"disconnect(uint256)": "47588f1f",
		"disconnect(uint256[])": "2a3dad6a",
		"disconnectAndClaim(uint256[],uint256[],uint256[],uint256,bytes)": "53472827",
		"fontaineCount()": "32d8b390",
		"fontaines(uint256)": "d991aaed",
		"getAvailableBalance()": "809dab6a",
		"getFlowRatePerProgram(uint256)": "1195bfcb",
		"getFlowRatePerProgram(uint256[])": "022d52c7",
		"getFontaineBeaconImplementation()": "e9a3c57e",
		"getStakedBalance()": "76965867",
		"getUnitsPerProgram(uint256)": "85ebd71b",
		"getUnitsPerProgram(uint256[])": "904ef614",
		"initialize(address)": "c4d66de8",
		"lock(uint256)": "dd467064",
		"lockerOwner()": "a80b4694",
		"stake()": "3a4b66f1",
		"stakingUnlocksAt()": "5bbd554c",
		"unlock(uint128,address)": "50bf2c3e",
		"unstake()": "2def6620"
	},
	"id": 185
}